:100000000C942C000C9454000C9454000C94540048
:100010000C9454000C9454000C9454000C940D0255
:100020000C9454000C9454000C94E7010C9454006C
:100030000C9454000C9454000C9454000C945400F0
:100040000C9454000C9454000C9454000C945400E0
:100050000C94540033023A0211241FBECFE5D8E0BD
:10006000DEBFCDBF10E0A0E6B0E0E8EAF1E102C0FB
:1000700005900D92AA3BB107D9F720E0AAEBB0E0BA
:1000800001C01D92A73DB207E1F710E0CBE2D0E03E
:1000900004C02197FE010E94C108CA32D107C9F7E6
:1000A0000E94BF010C94C7080C940000FC01108250
:1000B000118212821382148208950895FC0190B374
:1000C00090959F7090839923D1F08281811117C000
:1000D00081818F5F81838B3098F0118280EC8283E5
:1000E000148291FF02C081E0848392FF02C082E00B
:1000F0008483892F887021F083E0848301C011827A
:1001000091110CC0828186FF09C093819F5F938308
:100110009B3028F01382807882830895138208959B
:10012000FC019281992324F49074928381E00895D4
:1001300080E00895FC01248130E081E02617370734
:1001400009F080E0089508958BB38B7F8BBB82B359
:10015000806482BB65BB000082B38F7B82BB0000E2
:1001600082B3806482BB6295607F65BB000082B30E
:100170008F7B82BB00008FE99FE00197F1F700C001
:1001800000000895CF93DF93EC018FEF84BB15BA85
:100190001BBA84E08ABB12BA80E681BB2FE788E3F2
:1001A00091E0215080409040E1F700C000008BB307
:1001B0008B7F8BBB80E385BB92B39F7B92BB0000A0
:1001C00092B3906492BBEAE1EA95F1F700C092B372
:1001D0009F7B92BBEFECF7E03197F1F700C0000096
:1001E00085BB92B39F7B92BB000092B3906492BB9D
:1001F000FAE1FA95F1F700C092B39F7B92BBEFEC66
:10020000F7E03197F1F700C0000085BB82B38F7B28
:1002100082BB000082B3806482BBFAE1FA95F1F7F9
:1002200000C082B38F7B82BB8FEC97E00197F1F720
:1002300000C00000EFE1FEE43197F1F700C00000DC
:1002400060E2CE010E94A40068E2CE010E94A400F8
:1002500068E0CE010E94A40061E0CE010E94A400EB
:1002600066E0CE010E94A4006CE0CE010E94A400D2
:10027000DF91CF9108950E94C20008958BB38460EE
:100280008BBB82B3806482BB65BB000082B38F7B73
:1002900082BB000082B3806482BB6295607F65BBD5
:1002A000000082B38F7B82BB00008FE99FE0019743
:1002B000F1F700C000000895CF92DF92EF92FF9215
:1002C0000F931F93CF9314161506A4F48A016B01A4
:1002D0007C01C0E02C2F30E0201731075CF4F601E0
:1002E000EC0FF11D6081662319F0C7010E943E01E9
:1002F000CF5FF0CFCF911F910F91FF90EF90DF90E4
:10030000CF9008950F931F93CF93DF93EC018B0150
:10031000019739F46F3F7F4F21F48AEB90E00E9400
:100320004102CD2B39F40F3F1F4F21F48AEB90E0AF
:100330000E949702DF91CF911F910F9108951BBAF0
:100340008FE08ABB15BA8FEF84BB18BA87BB12BA8D
:1003500080E681BB08951DBC1CBC8FE391E09BBD72
:100360008ABD1FBC8CE08EBD8FE388BF82E189BF50
:10037000089512BE81E38CBF8CE083BF0895CF93B4
:10038000DF93CDB7DEB76D970FB6F894DEBF0FBE23
:10039000CDBFF8940E949F010E94AB010E94B90159
:1003A000CE0101960E9441028DE1FE013196AAEB39
:1003B000B0E001900D928A95E1F7CE0101960E947E
:1003C000970278948AEB90E00E94F605FBCF1F928B
:1003D0000F920FB60F9211242F933F934F935F9379
:1003E0006F937F938F939F93AF93BF93EF93FF93FD
:1003F0008AEB90E00E940306FF91EF91BF91AF91CD
:100400009F918F917F916F915F914F913F912F912C
:100410000F900FBE0F901F9018951F920F920FB65E
:100420000F9211242F933F934F935F936F937F937A
:100430008F939F93AF93BF93EF93FF938AEB90E0DB
:100440000E940706FF91EF91BF91AF919F918F910D
:100450007F916F915F914F913F912F910F900FBEC0
:100460000F901F9018956FEF7FEF81E090E00E9452
:10047000820108956FEF7FEF80E090E00E9482019B
:100480000895EF92FF920F931F93CF93DF9300D0C5
:1004900000D000D0CDB7DEB78C010E943B017801BF
:1004A0008FEFE81AF80AC7010E9456008FEFF80193
:1004B0008683178281E080871286118614861386D0
:1004C00016861586108A1786118A128A138A148A4C
:1004D000158A168A178A108E118E128E138E148E1C
:1004E000CE0106960E943B01CE0106960E94A30013
:1004F000CE0101960E94560085E0FE013196D7019B
:1005000001900D928A95E1F7CE0101960E945D005F
:10051000F801168226960FB6F894DEBF0FBECDBF47
:10052000DF91CF911F910F91FF90EF900895CF939E
:10053000DF93EC0101960E945D00CE010E94A300B2
:10054000DF91CF910895CF92DF92EF92FF921F93A8
:10055000CF93DF93EC0118851123F1F069897A8933
:100560008B899C890E9450070E94DD069B01ECE369
:10057000F0E0CB01BF010E948A089A878987CB01EE
:10058000BF010E948A089C878B87C90160E17EE0D9
:100590000E948A087E876D8789859A85CB84DC8452
:1005A000ED84FE842AE030E0B9010E948A08E8EA7E
:1005B000F0E0805D8783CB01B9010E948A08805DED
:1005C0008683C601B9010E948A08805D8483CB01BD
:1005D000B9010E948A08805D8383C701B9010E9426
:1005E0008A08805D8183CB01B9010E948A08805D01
:1005F0008083112339F080E283878487858786870B
:1006000087870CC0E8EAF0E080E7838781E684878B
:1006100085E7858783E7868785E6878760E8CE015B
:100620000E94A40042E150E068EA70E0CE010E941E
:100630005C01DF91CF911F91FF90EF90DF90CF9001
:100640000895CF92DF92EF92FF920F931F93CF9373
:10065000DF93EC01CD88DE88EF88F88CC701B60106
:100660000E9450070E94DD068B0120E030E04AE73F
:1006700054E4C701B6010E941D080E94DD06CB01AB
:1006800068EE73E00E948A086C012CE330E0C80138
:10069000B9010E948A087C01CB01B9010E948A0835
:1006A0008C012AE030E0C601B9010E948A08E6E91F
:1006B000F0E0805D8087CB01B9010E948A08805DEF
:1006C0008783C60164E670E00E948A08CB01B90105
:1006D0000E948A08805D8683C701B9010E948A084A
:1006E000805D8483CB01B9010E948A08805D838389
:1006F000C801B9010E948A08805D8183CB01B901DC
:100700000E948A08805D808360E8CE010E94A40078
:1007100042E150E066E970E0CE010E945C01DF91A9
:10072000CF911F910F91FF90EF90DF90CF900895A0
:100730000F931F93CF93DF93CDB7DEB762970FB6BA
:10074000F894DEBF0FBECDBF8C0180E090E0823117
:1007500091056CF4FC01E05AFF4F2081E1E0F0E0EC
:10076000EC0FFD1FE80FF91F20830196F0CFF80171
:1007700087859089282F8230910510F021E0280F7D
:10078000049708F02F5FE1E0F0E0EC0FFD1FE20FAF
:10079000F11D8EE5808368EAC8010E94A40042E151
:1007A00050E0BE016F5F7F4FC8010E945C016296FE
:1007B0000FB6F894DEBF0FBECDBFDF91CF911F9172
:1007C0000F910895CF93DF93EC018E81882319F068
:1007D0008130B9F024C0CE010E94A302888588230D
:1007E00061F068EACE010E94A40042E150E064E8B2
:1007F00070E0CE010E945C0112C0CE010E949803FD
:100800000EC0CE010E94210368EACE010E94A4001E
:1008100042E150E062E770E0CE010E945C01DF91AE
:10082000CF9108950F931F93CF93DF93EC018C0129
:100830000F5F1F4FC8010E949000882309F49CC1DC
:1008400060E070E0C8010E949A00882329F0888542
:10085000882311F081E08E8361E070E0C8010E947E
:100860009A00882321F0988581E08927888762E0B3
:1008700070E0C8010E949A008823E1F08885811108
:1008800019C04F8558894F5F5F4F9A01ABEABAEAAA
:100890000E949E0896958795969587959C01220FB4
:1008A000331F820F931F880F991F9A01281B390B42
:1008B000388B2F8763E070E0C8010E949A0088237C
:1008C00009F457C18885811154C18F859889823078
:1008D000910509F472C028F4009769F0019759F165
:1008E00023C18430910509F4C4C008F483C005977E
:1008F00009F4DCC019C14D855E85465F5F4F9A01E2
:10090000ABEABAEA0E949E08929582958F70892779
:100910009F7089279C01220F331F820F931F880F1E
:10092000991F880F991F880F991F9A01281B390B4F
:100930003E872D87F9C04D855E859A01ADECBCECF4
:100940000E949E089695879596958795969587958A
:100950009C01220F331F880F991F880F991F880F42
:10096000991F820F931F9A01281B390B29303105DB
:1009700021F44A5051095E874D874D855E854F5F52
:100980005F4F9A01ABEABAEA0E949E08929582955F
:100990008F7089279F7089279C01220F331F820F38
:1009A000931F880F991F880F991F880F991F9A010D
:1009B000281B390B3E872D87B7C04B855C85465F6A
:1009C0005F4F9A01A9E8B8E80E949E08969587951E
:1009D000929582958F7089279F7089276CE3689F15
:1009E0009001699F300D1124CA01821B930B9C87D3
:1009F0008B879AC04B855C859A01ADECBCEC0E945C
:100A00009E089695879596958795969587959C01CE
:100A1000220F331F880F991F880F991F880F991F66
:100A2000820F931F9A01281B390B2930310521F4BD
:100A30004A5051095C874B874B855C854F5F5F4F00
:100A40009A01A9E8B8E80E949E0896958795929524
:100A500082958F7089279F7089276CE3689F90012A
:100A6000699F300D1124CA01821B930B9C878B87D1
:100A70005BC049855A85465F5F4F9A01A9E8B8E88F
:100A80000E949E0896958795929582958F708927EA
:100A90009F7089276CE3689F9001699F300D112436
:100AA000CA01821B930B9A8789873EC049855A8564
:100AB0009A01ADECBCEC0E949E08969587959695A0
:100AC0008795969587959C01220F331F880F991F54
:100AD000880F991F880F991F820F931F9A01281B57
:100AE000390B2930310521F44A5051095A87498779
:100AF00049855A854F5F5F4F9A01A9E8B8E80E947F
:100B00009E0896958795929582958F7089279F70FC
:100B100089276CE3689F9001699F300D1124CA01F9
:100B2000821B930B9A87898789859A854D855E8577
:100B300020E13EE0429FB001439F700D529F700D37
:100B400011244B855C85ECE3E49F9001E59F300D1B
:100B50001124620F731F680F791F80E090E00E94DC
:100B60001307698B7A8B8B8B9C8B698F7A8F8B8F1A
:100B70009C8FCE010E94E203DF91CF911F910F91D4
:100B800008950F931F93CF93DF938C01EC0121966F
:100B9000CE010E949000882321F160E070E0CE0138
:100BA0000E949A00882311F0F801168261E070E03B
:100BB000CE010E949A00882329F0F801978181E0F4
:100BC0008927878362E070E0CE010E949A00882323
:100BD00029F0F801158A168A178A108EC8010E941A
:100BE000E203DF91CF911F910F910895FC012681BF
:100BF000222319F0213021F008950E941204089553
:100C00000E94C105089501960E945E000895CF924A
:100C1000DF92EF92FF921F93CF93DF93EC018885D1
:100C2000882371F02CEA35EC47E25CE369897A8924
:100C30008B899C890E946C06698B7A8B8B8B9C8B31
:100C40001E81113089F48F81882371F02CEA35ECF4
:100C500047E25CE36D897E898F89988D0E946C06DE
:100C60006D8B7E8B8F8B988FC98CDA8CEB8CFC8C88
:100C700029893A894B895C89C701B6010E94D80647
:100C800018160CF1112319F0113071F019C020E081
:100C900030E040E85FE3C701B6010E946C06698F4F
:100CA0007A8F8B8F9C8F0CC02DEC3CEC4CEC5DE371
:100CB000C701B6010E946C06698F7A8F8B8F9C8F5B
:100CC000CE010E94E203DF91CF911F91FF90EF9040
:100CD000DF90CF9008955058BB27AA270E94830623
:100CE0000C94CB070E94BD0738F00E94C40720F087
:100CF00039F49F3F19F426F40C94BA070EF4E095EA
:100D0000E7FB0C948B07E92F0E94DC0758F3BA1716
:100D1000620773078407950720F079F4A6F50C9411
:100D200016080EF4E0950B2EBA2FA02D0B01B90179
:100D300090010C01CA01A0011124FF27591B99F051
:100D4000593F50F4503E68F11A16F040A22F232F5D
:100D5000342F4427585FF3CF469537952795A795AD
:100D6000F0405395C9F77EF41F16BA0B620B730B54
:100D7000840BBAF09150A1F0FF0FBB1F661F771FC5
:100D8000881FC2F70EC0BA0F621F731F841F48F47A
:100D9000879577956795B795F7959E3F08F0B0CF03
:100DA0009395880F08F09927EE0F979587950895EA
:100DB0000E94670708F481E008950E94E4066894A1
:100DC000B1110C94170808950E94E40788F09F570A
:100DD00098F0B92F9927B751B0F0E1F0660F771F5F
:100DE000881F991F1AF0BA95C9F714C0B13091F055
:100DF0000E941608B1E008950C941608672F782F0A
:100E00008827B85F39F0B93FCCF386957795679519
:100E1000B395D9F73EF490958095709561957F4F85
:100E20008F4F9F4F0895E89409C097FB3EF490952B
:100E30008095709561957F4F8F4F9F4F9923A9F0B3
:100E4000F92F96E9BB279395F69587957795679542
:100E5000B795F111F8CFFAF4BB0F11F460FF1BC086
:100E60006F5F7F4F8F4F9F4F16C0882311F096E919
:100E700011C0772321F09EE8872F762F05C06623C7
:100E800071F096E8862F70E060E02AF09A95660F80
:100E9000771F881FDAF7880F9695879597F9089539
:100EA0000E94FE0790F09F3748F4911116F00C94C1
:100EB000170860E070E080E89FEB089526F41B16A9
:100EC000611D711D811D0C9491070C94AC07990F45
:100ED0000008550FAA0BE0E8FEEF16161706E80704
:100EE000F907C0F012161306E407F50798F0621B25
:100EF000730B840B950B39F40A2661F0232B242BFA
:100F0000252B21F408950A2609F4A140A6958FEF18
:100F1000811D811D089597F99F6780E870E060E06A
:100F20000895882371F4772321F09850872B762F2A
:100F300007C0662311F499270DC09051862B70E0ED
:100F400060E02AF09A95660F771F881FDAF7880FFE
:100F50009695879597F908959F3F31F0915020F429
:100F6000879577956795B795880F911D9695879585
:100F700097F908959FEF80EC089500240A941616BF
:100F8000170618060906089500240A941216130677
:100F9000140605060895092E0394000C11F4882305
:100FA00052F0BB0F40F4BF2B11F460FF04C06F5F21
:100FB0007F4F8F4F9F4F089557FD9058440F551FF7
:100FC00059F05F3F71F04795880F97FB991F61F0CB
:100FD0009F3F79F087950895121613061406551F42
:100FE000F2CF4695F1DF08C0161617061806991FAE
:100FF000F1CF869571056105089408950E94E40774
:10100000A0F0BEE7B91788F4BB279F3860F4161626
:10101000B11D672F782F8827985FF7CF8695779532
:101020006795B11D93959639C8F30895E894BB2749
:1010300066277727CB0197F908950E9430080C9412
:10104000CB070E94BD0738F00E94C40720F095230B
:1010500011F00C948B070C94BA0711240C94170808
:101060000E94DC0770F3959FC1F3950F50E0551F68
:10107000629FF001729FBB27F00DB11D639FAA27ED
:10108000F00DB11DAA1F649F6627B00DA11D661F3C
:10109000829F2227B00DA11D621F739FB00DA11D5D
:1010A000621F839FA00D611D221F749F3327A00D17
:1010B000611D231F849F600D211D822F762F6A2FB3
:1010C00011249F5750409AF0F1F088234AF0EE0F18
:1010D000FF1FBB1F661F771F881F91505040A9F745
:1010E0009E3F510580F00C948B070C9417085F3FCE
:1010F000E4F3983ED4F3869577956795B795F79581
:10110000E7959F5FC1F7FE2B880F911D96958795F8
:1011100097F9089597FB072E16F4009407D077FDF2
:1011200009D00E94AD0807FC05D03EF4909581954A
:101130009F4F0895709561957F4F0895A29FB001CC
:10114000B39FC001A39F700D811D1124911DB29FFB
:10115000700D811D1124911D0895AA1BBB1B51E127
:1011600007C0AA1FBB1FA617B70710F0A61BB70B17
:10117000881F991F5A95A9F780959095BC01CD01BC
:101180000895EE0FFF1F0590F491E02D099410E0F3
:10119000CBE2D0E004C0FE010E94C1082196CC320F
:0811A000D107C9F7F894FFCF55
:1011A8002020202020202020202020202B3E7320BB
:1011B80020204D6F64653A2054696D657220207255
:1011C80073F920204D6F64653A20436C6F636B2080
:1011D800202063FB202030303A30303A3030302045
:1011E800202020202020202030303A30303A303063
:0A11F80020202020202020202020AD
:00000001FF
