:100000000C942C000C9454000C9454000C94540048
:100010000C9454000C9454000C9454000C94100252
:100020000C9454000C9454000C94EA010C94540069
:100030000C9454000C9454000C9454000C945400F0
:100040000C9454000C9454000C9454000C945400E0
:100050000C94540036023D0211241FBECFE5D8E0B7
:10006000DEBFCDBF10E0A0E6B0E0ECE4F1E102C0FD
:1000700005900D92A83AB107D9F720E0A8EAB0E0C0
:1000800001C01D92A53CB207E1F710E0CBE2D0E041
:1000900004C02197FE010E949308CA32D107C9F714
:1000A0000E94C2010C9499080C940000FC0110827B
:1000B000118212821382148208950895FC0190B374
:1000C00090959F7090839923D1F08281811117C000
:1000D00081818F5F81838B3098F0118280EC8283E5
:1000E000148291FF02C081E0848392FF02C082E00B
:1000F0008483892F887021F083E0848301C011827A
:1001000091110CC0828186FF09C093819F5F938308
:100110009B3028F01382807882830895138208959B
:10012000FC019281992324F49074928381E00895D4
:1001300080E00895FC01248130E081E02617370734
:1001400009F080E0089508958BB38B7F8BBB82B359
:10015000806482BB65BB000082B38F7B82BB0000E2
:1001600082B3806482BB6295607F65BB000082B30E
:100170008F7B82BB00008FE99FE00197F1F700C001
:1001800000000895CF93DF93EC018FEF84BB15BA85
:100190001BBA84E08ABB12BA80E681BB2FE788E3F2
:1001A00091E0215080409040E1F700C000008BB307
:1001B0008B7F8BBB80E385BB92B39F7B92BB0000A0
:1001C00092B3906492BBEAE1EA95F1F700C092B372
:1001D0009F7B92BBEFECF7E03197F1F700C0000096
:1001E00085BB92B39F7B92BB000092B3906492BB9D
:1001F000FAE1FA95F1F700C092B39F7B92BBEFEC66
:10020000F7E03197F1F700C0000085BB82B38F7B28
:1002100082BB000082B3806482BBFAE1FA95F1F7F9
:1002200000C082B38F7B82BB8FEC97E00197F1F720
:1002300000C00000EFE1FEE43197F1F700C00000DC
:1002400060E2CE010E94A40068E2CE010E94A400F8
:1002500068E0CE010E94A40061E0CE010E94A400EB
:1002600066E0CE010E94A4006CE0CE010E94A400D2
:10027000DF91CF9108950E94C20008958BB38460EE
:100280008BBB82B3806482BB65BB000082B38F7B73
:1002900082BB000082B3806482BB6295607F65BBD5
:1002A000000082B38F7B82BB00008FE99FE0019743
:1002B000F1F700C000000895CF92DF92EF92FF9215
:1002C0000F931F93CF936C017B018A01C0E0CF3F56
:1002D000A1F0F701EC0FF11D6081662371F00F3F73
:1002E0008FEF180729F08C2F90E0801791072CF4DE
:1002F000C6010E943E01CF5FEACFCF911F910F91BF
:10030000FF90EF90DF90CF9008950F931F93CF93BE
:10031000DF93EC018B01019739F46F3F7F4F21F49C
:1003200088EA90E00E944402CD2B39F40F3F1F4F22
:1003300021F488EA90E00E949A02DF91CF911F9108
:100340000F9108951BBA8FE08ABB15BA8FEF84BB5B
:1003500018BA87BB12BA80E681BB08951DBC1CBCCD
:1003600081E391E09BBD8ABD1FBC8CE08EBD8FE315
:1003700088BF82E189BF089512BE81E38CBF8CE003
:1003800083BF0895CF93DF93CDB7DEB76D970FB6D8
:10039000F894DEBF0FBECDBFF8940E94A2010E9468
:1003A000AE010E94BC01CE0101960E9444028DE183
:1003B000FE013196A8EAB0E001900D928A95E1F72E
:1003C000CE0101960E949A02789488EA90E00E94F9
:1003D000C805FBCF1F920F920FB60F9211242F93D7
:1003E0003F934F935F936F937F938F939F93AF93BD
:1003F000BF93EF93FF9388EA90E00E94D505FF91A9
:10040000EF91BF91AF919F918F917F916F915F918C
:100410004F913F912F910F900FBE0F901F90189505
:100420001F920F920FB60F9211242F933F934F9369
:100430005F936F937F938F939F93AF93BF93EF934C
:10044000FF9388EA90E00E94D905FF91EF91BF9158
:10045000AF919F918F917F916F915F914F913F915C
:100460002F910F900FBE0F901F9018956FEF7FEF99
:1004700081E090E00E94850108956FEF7FEF80E0BA
:1004800090E00E9485010895EF92FF920F931F93D1
:10049000CF93DF9300D000D000D0CDB7DEB78C0172
:1004A0000E943B0178018FEFE81AF80AC7010E9409
:1004B00056008FEFF8018683178281E080871286CD
:1004C00011861486138616861586108A1786118A59
:1004D000128A138A148A158A168A178A108E118E28
:1004E000128E138E148ECE0106960E943B01CE0111
:1004F00006960E94A300CE0101960E94560085E058
:10050000FE013196D70101900D928A95E1F7CE0157
:1005100001960E945D00F801168226960FB6F894A7
:10052000DEBF0FBECDBFDF91CF911F910F91FF9026
:10053000EF900895CF93DF93EC0101960E945D0048
:10054000CE010E94A300DF91CF910895EF92FF9218
:100550000F931F93CF93DF93EC0188858823F1F0ED
:1005600069897A898B899C890E9422070E94AF063B
:100570009B01ECE3F0E0CB01BF010E945C089A878D
:100580008987CB01BF010E945C089C878B87C901CA
:1005900060E17EE00E945C087E876D8789859A8590
:1005A000EB84FC840D851E852AE030E0B9010E94B1
:1005B0005C08E6E9F0E0805D8587CB01B9010E9427
:1005C0005C08805D8487C701B9010E945C08805D7A
:1005D0008287CB01B9010E945C08805D8187C801D8
:1005E000B9010E945C08805D8783CB01B9010E943C
:1005F0005C08805D868360E8CE010E94A40042E131
:1006000050E066E970E0CE010E945C01DF91CF917D
:100610001F910F91FF90EF900895CF92DF92EF928C
:10062000FF920F931F93CF93DF93EC01CD88DE8869
:10063000EF88F88CC701B6010E9422070E94AF061E
:100640008B0120E030E04AE754E4C701B6010E9484
:10065000EF070E94AF06CB0168EE73E00E945C08D2
:100660006C012CE330E0C801B9010E945C087C01F8
:10067000CB01B9010E945C088C012AE030E0C60180
:10068000B9010E945C08E4E8F0E0805D8787CB0157
:10069000B9010E945C08805D8687C60164E670E04F
:1006A0000E945C08CB01B9010E945C08805D8587CF
:1006B000C701B9010E945C08805D8387CB01B90145
:1006C0000E945C08805D8287C801B9010E945C08B5
:1006D000805D8087CB01B9010E945C08805D8783C3
:1006E00060E8CE010E94A40042E150E064E870E0BE
:1006F000CE010E945C01DF91CF911F910F91FF907D
:10070000EF90DF90CF9008950F931F93CF93DF93D7
:10071000CDB7DEB762970FB6F894DEBF0FBECDBF80
:100720008C01FC018681882319F0813029F007C0F3
:10073000C8010E94A60203C0C8010E940D03F8016F
:100740008085811134C080E090E0823191056CF4A5
:10075000FC01E05AFF4F2081E1E0F0E0EC0FFD1FCB
:10076000E80FF91F20830196F0CFF8018785908963
:1007700026E0280F8230910510F027E0280F04971B
:1007800008F02F5FE1E0F0E0EC0FFD1FE20FF11D3C
:100790008EE5808368EAC8010E94A40042E150E02F
:1007A000BE016F5F7F4FC8010E945C010BC068EA09
:1007B000C8010E94A40042E150E062E770E0C80175
:1007C0000E945C0162960FB6F894DEBF0FBECDBFEB
:1007D000DF91CF911F910F9108950F931F93CF93A6
:1007E000DF93EC018C010F5F1F4FC8010E94900046
:1007F000882309F493C160E070E0C8010E949A0068
:10080000882311F081E08E8361E070E0C8010E94CE
:100810009A00882321F0988581E08927888762E003
:1008200070E0C8010E949A008823C9F04F8558895A
:100830004F5F5F4F9A01ABEABAEA0E947008969543
:100840008795969587959C01220F331F820F931FE2
:10085000880F991F9A01281B390B388B2F8763E06B
:1008600070E0C8010E949A00882309F454C18F8562
:1008700098898230910509F472C028F4009769F0D4
:10088000019759F123C18430910509F4C4C008F4DB
:1008900083C0059709F4DCC019C14D855E85465FAC
:1008A0005F4F9A01ABEABAEA0E947008929582956E
:1008B0008F7089279F7089279C01220F331F820F19
:1008C000931F880F991F880F991F880F991F9A01EE
:1008D000281B390B3E872D87F9C04D855E859A010F
:1008E000ADECBCEC0E94700896958795969587951F
:1008F000969587959C01220F331F880F991F880FAB
:10090000991F880F991F820F931F9A01281B390B7B
:100910002930310521F44A5051095E874D874D85B4
:100920005E854F5F5F4F9A01ABEABAEA0E9470089A
:10093000929582958F7089279F7089279C01220F3D
:10094000331F820F931F880F991F880F991F880FDD
:10095000991F9A01281B390B3E872D87B7C04B85FD
:100960005C85465F5F4F9A01A9E8B8E80E9470086D
:1009700096958795929582958F7089279F70892784
:100980006CE3689F9001699F300D1124CA01821B9E
:10099000930B9C878B879AC04B855C859A01ADEC45
:1009A000BCEC0E94700896958795969587959695CC
:1009B00087959C01220F331F880F991F880F991F5D
:1009C000880F991F820F931F9A01281B390B29301A
:1009D000310521F44A5051095C874B874B855C8572
:1009E0004F5F5F4F9A01A9E8B8E80E94700896959A
:1009F0008795929582958F7089279F7089276CE3E0
:100A0000689F9001699F300D1124CA01821B930BCE
:100A10009C878B875BC049855A85465F5F4F9A01EB
:100A2000A9E8B8E80E9470089695879592958295F6
:100A30008F7089279F7089276CE3689F9001699F59
:100A4000300D1124CA01821B930B9A8789873EC0FF
:100A500049855A859A01ADECBCEC0E9470089695C8
:100A6000879596958795969587959C01220F331FBC
:100A7000880F991F880F991F880F991F820F931F46
:100A80009A01281B390B2930310521F44A505109AC
:100A90005A87498749855A854F5F5F4F9A01A9E870
:100AA000B8E80E94700896958795929582958F7008
:100AB00089279F7089276CE3689F9001699F300D9B
:100AC0001124CA01821B930B9A87898789859A858D
:100AD0004D855E8520E13EE0429FB001439F700D51
:100AE000529F700D11244B855C85ECE3E49F9001CF
:100AF000E59F300D1124620F731F680F791F80E08E
:100B000090E00E94E506698B7A8B8B8B9C8B698FBA
:100B10007A8F8B8F9C8FCE010E948403DF91CF91BF
:100B20001F910F9108950F931F93CF93DF938C0123
:100B3000EC012196CE010E949000882321F160E013
:100B400070E0CE010E949A00882311F0F80116820D
:100B500061E070E0CE010E949A00882329F0F8013C
:100B6000978181E08927878362E070E0CE010E944F
:100B70009A00882329F0F801158A168A178A108EA0
:100B8000C8010E948403DF91CF911F910F910895B6
:100B9000FC012681222319F0213021F008950E94C2
:100BA000ED0308950E949305089501960E945E004A
:100BB0000895CF92DF92EF92FF921F93CF93DF932E
:100BC000EC018885882371F02CEA35EC47E25CE380
:100BD00069897A898B899C890E943E06698B7A8B08
:100BE0008B8B9C8B1E81113089F48F81882371F04F
:100BF0002CEA35EC47E25CE36D897E898F89988D1C
:100C00000E943E066D8B7E8B8F8B988FC98CDA8C01
:100C1000EB8CFC8C29893A894B895C89C701B60128
:100C20000E94AA0618160CF1112319F0113071F068
:100C300019C020E030E040E85FE3C701B6010E9440
:100C40003E06698F7A8F8B8F9C8F0CC02DEC3CEC0D
:100C50004CEC5DE3C701B6010E943E06698F7A8FB6
:100C60008B8F9C8FCE010E948403DF91CF911F91C7
:100C7000FF90EF90DF90CF9008955058BB27AA27A0
:100C80000E9455060C949D070E948F0738F00E9421
:100C9000960720F039F49F3F19F426F40C948C0742
:100CA0000EF4E095E7FB0C945D07E92F0E94AE0778
:100CB00058F3BA17620773078407950720F079F491
:100CC000A6F50C94E8070EF4E0950B2EBA2FA02D94
:100CD0000B01B90190010C01CA01A0011124FF27E9
:100CE000591B99F0593F50F4503E68F11A16F040E4
:100CF000A22F232F342F4427585FF3CF46953795E3
:100D00002795A795F0405395C9F77EF41F16BA0BA7
:100D1000620B730B840BBAF09150A1F0FF0FBB1F55
:100D2000661F771F881FC2F70EC0BA0F621F731F9E
:100D3000841F48F4879577956795B795F7959E3FFB
:100D400008F0B0CF9395880F08F09927EE0F97958C
:100D5000879508950E94390708F481E008950E945C
:100D6000B6066894B1110C94E90708950E94B6077D
:100D700088F09F5798F0B92F9927B751B0F0E1F05C
:100D8000660F771F881F991F1AF0BA95C9F714C00C
:100D9000B13091F00E94E807B1E008950C94E807A3
:100DA000672F782F8827B85F39F0B93FCCF3869545
:100DB00077956795B395D9F73EF4909580957095A2
:100DC00061957F4F8F4F9F4F0895E89409C097FB1F
:100DD0003EF490958095709561957F4F8F4F9F4F12
:100DE0009923A9F0F92F96E9BB279395F695879556
:100DF00077956795B795F111F8CFFAF4BB0F11F419
:100E000060FF1BC06F5F7F4F8F4F9F4F16C08823BF
:100E100011F096E911C0772321F09EE8872F762FF5
:100E200005C0662371F096E8862F70E060E02AF036
:100E30009A95660F771F881FDAF7880F9695879522
:100E400097F908950E94D00790F09F3748F49111C8
:100E500016F00C94E90760E070E080E89FEB0895DD
:100E600026F41B16611D711D811D0C9463070C94E3
:100E70007E07990F0008550FAA0BE0E8FEEF161643
:100E80001706E807F907C0F012161306E407F5077E
:100E900098F0621B730B840B950B39F40A2661F0F2
:100EA000232B242B252B21F408950A2609F4A14095
:100EB000A6958FEF811D811D089597F99F6780E8A2
:100EC00070E060E00895882371F4772321F0985052
:100ED000872B762F07C0662311F499270DC09051F8
:100EE000862B70E060E02AF09A95660F771F881FC6
:100EF000DAF7880F9695879597F908959F3F31F017
:100F0000915020F4879577956795B795880F911D37
:100F10009695879597F908959FEF80EC08950024A2
:100F20000A941616170618060906089500240A944E
:100F300012161306140605060895092E0394000CD4
:100F400011F4882352F0BB0F40F4BF2B11F460FF63
:100F500004C06F5F7F4F8F4F9F4F089557FD90588C
:100F6000440F551F59F05F3F71F04795880F97FB6D
:100F7000991F61F09F3F79F0879508951216130627
:100F80001406551FF2CF4695F1DF08C01616170656
:100F90001806991FF1CF869571056105089408958B
:100FA0000E94B607A0F0BEE7B91788F4BB279F38A8
:100FB00060F41616B11D672F782F8827985FF7CF3A
:100FC000869577956795B11D93959639C8F30895E1
:100FD000E894BB2766277727CB0197F908950E94ED
:100FE00002080C949D070E948F0738F00E94960714
:100FF00020F0952311F00C945D070C948C071124BC
:101000000C94E9070E94AE0770F3959FC1F3950F0A
:1010100050E0551F629FF001729FBB27F00DB11D7C
:10102000639FAA27F00DB11DAA1F649F6627B00D0C
:10103000A11D661F829F2227B00DA11D621F739FF5
:10104000B00DA11D621F839FA00D611D221F749F03
:101050003327A00D611D231F849F600D211D822F4A
:10106000762F6A2F11249F5750409AF0F1F0882371
:101070004AF0EE0FFF1FBB1F661F771F881F91509E
:101080005040A9F79E3F510580F00C945D070C94E9
:10109000E9075F3FE4F3983ED4F38695779567952B
:1010A000B795F795E7959F5FC1F7FE2B880F911DC8
:1010B0009695879597F9089597FB072E16F4009457
:1010C00007D077FD09D00E947F0807FC05D03EF4C9
:1010D000909581959F4F0895709561957F4F0895E4
:1010E000A29FB001B39FC001A39F700D811D112469
:1010F000911DB29F700D811D1124911D0895AA1B91
:10110000BB1B51E107C0AA1FBB1FA617B70710F0F2
:10111000A61BB70B881F991F5A95A9F78095909524
:10112000BC01CD010895EE0FFF1F0590F491E02D55
:10113000099410E0CBE2D0E004C0FE010E949308C5
:0C1140002196CC32D107C9F7F894FFCFFC
:10114C005365743A202020202020202020202020AD
:10115C002020202020202020202020202020202083
:10116C002020202054696D65723A2030303A30309E
:10117C003A303030202054696D653A2030303A30A6
:08118C00303A30302020202011
:00000001FF
